:020000040800F2
:1000000010020020C90F0008A50F0008A70F000864
:1000100000000000000000000000000000000000E0
:10002000000000000000000000000000AB0F00080E
:100030000000000000000000AD0F0008AF0F000836
:10004000A3090008870A00081F0D00086F0D0008AB
:10005000030F0008130F0008B70F0008E90F00088E
:10006000EB0F0008ED0F0008EF0F00080000000084
:10007000F10F0008F30F0008F50F0008F70F000854
:1000800000000000F90F000800000000FB0F00084E
:1000900000000000FD0F0008FF0F0008011000081D
:1000A00003100008051000080710000809100008D8
:1000B0000B1000080D1000080F10000811100008A8
:1000C000F8B50400002C01D1012054E22078C007CB
:1000D00067D5B448016838200840B3490A68110060
:1000E000C907C90F102801D1012901D0082808D15A
:1000F000AE480068800354D56068002851D10120C3
:1001000039E26068002809D0A068002810D0A8480B
:10011000016803229143A2680A43026080204002E2
:100120006168814206D1A1490A681043086019E05C
:10013000012020E26168A022D202914209D19B49AC
:100140000A688023DB0213430B600A6810430860CF
:1001500008E096480168AE4A0A4002600168AD4A6C
:100160000A400260606800280DD000F075FB0500B1
:100170008E480068800314D400F06EFB401BC92831
:10018000F6D30320F7E100F067FB0500874800681D
:10019000800306D500F060FB401BC928F6D303207E
:1001A000E9E12078800773D57E480068382707404A
:1001B0007D4801680800C007C00F102F01D100283A
:1001C00001D0002F41D18026F600784D28683040BC
:1001D000002804D06069002801D10120CBE1A348A8
:1001E0000168090C0904E2690A43026000F034FB6B
:1001F000009028683040002807D100F02DFB0099BE
:10020000401A0328F5D30320B5E1002F15D1286843
:10021000B1490140A0690843286000F08FFAAF4956
:10022000604A1268120A1207120F04235A43895CAB
:10023000C906C90EC840AA490860AA48006800F06B
:1002400011FB002824D0012095E16069002831D0FD
:10025000564E3068A0490140A069084330603068BC
:10026000802149000143316000F0F6FA0500306852
:10027000400506D400F0F0FA401B0328F7D3032012
:1002800079E17A480168090C0904E2690A430260CD
:100290002078000747D543480068382101401829D5
:1002A0001AD1B548006880073DD5206A00283AD1A8
:1002B000012060E13D4E3068B0490140316000F0FE
:1002C000CBFA050030684005E2D500F0C5FA401BC6
:1002D0000328F7D303204EE1206A002811D0A64E50
:1002E000306801210143316000F0B6FA0500306842
:1002F000800718D400F0B0FA401B0328F7D303207E
:1003000039E19D4E306801218843306000F0A4FA45
:1003100005003068800706D500F09EFA401B0328D0
:10032000F7D3032027E1042520682840002800D1C6
:10033000A6E000261B4800683821014020290AD188
:100340008F480068800700D49AE0E068002800D059
:1003500096E001200FE1802040058A4909680140AC
:10036000002908D187490A6802430A6009680840E1
:10037000009000980126844F3868C0051AD4386868
:10038000802149000143396000F066FA0090386826
:10039000C0050FD400F060FA0099401A0328F6D384
:1003A0000320E8E0081002400C1002400010024058
:1003B00010100240E068002815D02069C021890291
:1003C0000140002908D171480168714A0A40802122
:1003D00089021143016006E06C4801686C4A0A40DA
:1003E000216911430160E068012805D16448016872
:1003F00001220A43026018E0E06805280CD1604839
:1004000001680D430560016801220A4302600CE0A7
:10041000FFFFFEFFFFFFFBFF5948016801229143E8
:1004200001600168042291430160E06800280ED059
:1004300000F012FA050052480068800718D400F056
:100440000BFA401B53498842F5D3032093E000F098
:1004500003FA05004A480068800709D500F0FCF956
:10046000401B4C498842F5D3032084E0041002402D
:10047000F6B2012E04D143480168A54A0A40026041
:10048000606A002876D0A34800683821014010290E
:1004900061D0606A022847D19F4D28689F4901407A
:1004A000296000F0D9F907008026B604286830409A
:1004B000002806D000F0D0F9C01B0328F4D3032095
:1004C00059E0A06A00280FD100F0AAF994498842A7
:1004D0000AD201204FE000BFFFC7FFFF700D0008E8
:1004E00008000020000000208E480168012291438E
:1004F000A26A0A43026001680C229143E26A0A433D
:1005000002602868802149040143296000F0A4F9B1
:1005100004002868304000282CD100F09DF9001B11
:100520000328F6D3032026E07B4D28687B49014051
:1005300029607C48016801229143016000F08CF938
:1005400004002868800115D500F086F9001B0328F7
:10055000F7D303200FE0606A012801D101200AE0EF
:10056000704800680100C907C90FA06A814201D024
:10057000012000E00020F2BD60100240FFFEFFFFFE
:100580005C1002403C10024000700040101002401D
:10059000FFFFFCFF89130000FEB50400002C01D111
:1005A0000120B4E0009103255F4E30682840009997
:1005B000884215D230680321884300990143316095
:1005C00000F04AF90700306828400099884207D0B7
:1005D00000F042F9C01B55498842F4D3032096E04D
:1005E00002202168014000290FD02178490705D554
:1005F00048490A68E023DB0113430B6045490A6858
:100600004B4B1340A2681A430A602178C90745D5AD
:100610006168012905D140480068800324D4012085
:1006200075E06168002905D13B48006840051BD48E
:1006300001206CE06168022905D13748006880011B
:1006400012D4012063E06168042906D139490968A0
:100650000840002808D1012059E0374909680840BE
:10066000002801D1012052E02A4F38680721884331
:1006700061680143396000F0EFF801903868382173
:1006800001406068C000814208D000F0E5F801999F
:10069000401A26498842F1D3032038E00098316897
:1006A0002940884215D230680321884300990143CC
:1006B000316000F0D1F80700306828400099884286
:1006C00007D000F0C9F8C01B18498842F4D30320B2
:1006D0001DE02078400706D50E4801684C4A0A40C4
:1006E000E1681143016000F029F84A49094A12689B
:1006F000120A1207120F04235A43895CC906C90E55
:10070000C840454908604548006800F0ABF8FEBDA8
:10071000FFFFFFEF0810024000100240FFFFFFFE46
:10072000C0D8A7000C10024000200240891300002E
:10073000FFF0FFFF5C1002406010024000B589B07E
:1007400068463E49142200F0BBF805A83C49102237
:1007500000F0B6F8382038490A680240002A15D15E
:1007600007200121374A1268D20A0300134099403A
:10077000354A1268520B1040052800D300206A4603
:1007800004235843105800F0B5F83EE00A680240D0
:10079000082A01D12D4838E00A680240102A25D1E4
:1007A0002B4A11680800C007C00F05A912689208FB
:1007B0009207920F04235A438958002805D0012834
:1007C00011D10800214948431FE01F480068400B31
:1007D0004007400F052800D300206A4604235843F1
:1007E0001058484311E0009848430EE00A68024060
:1007F000202A02D18020000207E00968084018285A
:1008000002D18020000200E0002009B000BD0000FD
:10081000FF8FFFFF700D000808000020000000207F
:10082000072109480068400B08400A4A014004209B
:10083000414350587047000008100240900F0008D4
:10084000B80F0008001002400410024000366E018C
:100850000C1002403C0F000801480068704700BFC0
:100860000C00002038B50500002412490868002853
:100870001CD0FA208000096800F03CF801000E4806
:10088000006800F037F800F0EFF800280CD1042DD4
:1008900008D2002229000020C04300F0E0F80748F9
:1008A000056004E0012402E0012400E001242000AE
:1008B000C0B232BD0400002008000020000000206B
:1008C00070B4103A03D378C9103A78C0FBD25307FA
:1008D00001D318C918C001D508C908C0D20704D36C
:1008E0000B880380891C801C002A01D50B780370BB
:1008F00070BC70470022030A8B420BD203098B4263
:1009000019D243088B422ED2411A00D201465241DD
:1009100010467047FF2209023FD012068B4205D3D2
:10092000121209028B4201D31212090203098B42EF
:1009300019D300E0090AC3098B4201D3CB01C01AC5
:10094000524183098B4201D38B01C01A52414309A2
:100950008B4201D34B01C01A524103098B4201D390
:100960000B01C01A5241C3088B4201D3CB00C01AFD
:10097000524183088B4201D38B00C01A5241430875
:100980008B4201D34B00C01A5241884200D3401A17
:100990005241CFD201461046704708B500F072F8B8
:1009A00008BDFEE7F0B5020052B2002A1BD40322B4
:1009B0002F4B040064B2A40804256C431C59FF2586
:1009C0001600064008277E43B540AC438901C9B2F2
:1009D000024008256A439140214340B28008042226
:1009E0005043195022E00F24224B032205006DB220
:1009F0002540083DAE0804256E4305006DB22C402D
:100A0000083CA40804256C431F59FF24A446150084
:100A10000540082465436446AC40A7438901C9B238
:100A2000024008204243914039439951F0BD80B5BE
:100A3000411E80225204914201D301200EE0401E4B
:100A40000D49086003210020C043FFF7ABFF0020E1
:100A50000A49086007200A490860002002BD80B5E5
:100A600040B2FFF79FFF01BD80B5FFF7E0FF02BD79
:100A700000E400E01CED00E014E000E018E000E01D
:100A800010E000E07047FEE7F8B50200002331E017
:100A9000022602E0694DAA42FAD11D002F40082526
:100AA0006F43BE40064370489D0804277D4346516E
:100AB000634D2868A0434E68F60300D520432860A4
:100AC000604D2868A0434E68B60300D520432860D7
:100AD0005D4D2868A0434E68F60200D5204328608B
:100AE000624D2868A0434E68B60201D50443200039
:100AF00028605B1C0868D840002800D19DE00126D2
:100B0000086834009C400440002CF2D04868022859
:100B100002D0486812281ED1D8080425684310184E
:100B2000076A072000970F25AC461F0007400425E1
:100B30006F436546BD40009FAF43BC460F691D0033
:100B4000284004256843874060460743D8080425A9
:100B500068431018076215680327AC461D00022081
:100B600045433800A84065468543009548683840AD
:100B700084461D00022045436046A840009D28434E
:100B800010604868012808D04868022805D04868E5
:100B9000112802D0486812281DD19568AC461D0066
:100BA000022045433800A840654685430095C86843
:100BB00084461D00022045436046A840009D28430E
:100BC000906055683000984085434868000930407F
:100BD000984028435060D568AC461D00022045432C
:100BE0003800A840654685430095886884461D0006
:100BF000022045436046A840009D2843D0604868D5
:100C0000C00000D475E7184884469D080420454379
:100C10006046405900900F25AC461D003800284022
:100C200008256843654685400098A843A025ED0542
:100C3000AA4200D02EE700262FE7F1BD00040050A5
:100C400080180240841802400018024000B5426932
:100C50000B009BB21A40002A02D089B2816201E0E7
:100C600089B2816100BD0000601802400418024092
:100C700010B590B03021002204A800F051F81021E6
:100C80000022684600F04CF80220049080204000CA
:100C9000099000240A941E480068C004C00C8021FA
:100CA000090201430B9104A8FFF70AFA002801D0BA
:100CB00000F032F807200090019402940394002180
:100CC0006846FFF769FC002801D000F025F810B055
:100CD00010BD80B586B01421002201A800F020F8D4
:100CE00001200C490A6802430A600968014000912A
:100CF0000099E021C9000191029000200390049026
:100D000001A9A020C005FFF7BFFE07B000BD00008D
:100D1000100FFF1F3410024000B572B6FEE7FEE769
:100D20001206130A1A43130C1A4300BF094205D0D6
:100D3000830705D00270401C491EF9D1704700009E
:100D40001300103906D330B41400150010393CC01C
:100D5000FCD230BC490700D30CC000D504C08900C8
:100D600002D30280801C002900D502707047FEE784
:100D70000000000000000000000000000000000073
:100D80000000000000000000000000000000000063
:100D90000100000002000000030000000400000049
:100DA0000600000007000000080000000900000025
:100DB00081B0012009490A6802430A6009680840B5
:100DC000009000988020400505490A6802430A60A7
:100DD000096808400090009801B070474010024038
:100DE0003C10024008480168090C0904074A1268CF
:100DF00092B20A43802189011143016080200005DD
:100E0000034908607047000004100240040FFF1FF0
:100E100008ED00E030B401210EE00368C318446817
:100E200008300C4202D04D462C19641E1D68256006
:100E30001B1D241D121FF9D10268001D002AECD1D0
:100E400030BC704738B50400FFF706FD05000020F0
:100E5000C043844202D0044800682418FFF7FCFC19
:100E6000401BA042FAD331BD0400002010B5074951
:100E700079441831064C7C44163404E0081D0A6895
:100E8000891888470100A142F8D110BD9C000000DC
:100E9000AC00000080B500F00FF8FFF7E9FEFFF7A7
:100EA00018FFE021C900A020C005FFF7CFFEFA20FF
:100EB0008000FFF7C7FFF4E710B500240320FFF719
:100EC000D1FC002801D0012401E0FFF771FF2000D0
:100ED000C0B210BD00F00FF8002801D0FFF7C6FF28
:100EE00000BF00BF002000BF00BF00BF00BFFFF772
:100EF000D1FF00F002F80120704780B500F002F841
:100F000001BDFEE700F000F80746384600F002F8A1
:100F1000FBE7FEE780B500BF00BF024A11001820C2
:100F2000ABBEFBE726000200EDFEFFFF1000000055
:100F3000A8000000000000200000000000093D00A3
:100F400000127A000024F4004086510100366E0140
:100F500000093D0000093D0000093D00054801462B
:100F600003B4684680F3098800BF00BF00BF00BF1C
:100F7000FFF7B0FFA5EDF5FE03480168034A1268CC
:100F800089180160704700BF0C0000200400002099
:100F900000093D0000127A000024F400408651014F
:100FA00000366E01704700B5FEE77047704780B5A8
:100FB000FFF7E2FF01BDFEE70200000003000000B2
:100FC000020000000200000001488047014800477D
:100FD000E50D00085D0F000804000000010000009E
:100FE00000127A0000000000FEE7FEE7FEE7FEE7E1
:100FF000FEE7FEE7FEE7FEE7FEE7FEE7FEE7FEE7C9
:10100000FEE7FEE7FEE7FEE7FEE7FEE7FEE7FEE7B8
:02101000FEE7F9
:0400000508000F5D83
:00000001FF
