:020000040800F2
:10000000500500209D010008250F0008190F000869
:1000100000000000000000000000000000000000E0
:10002000000000000000000000000000890F000830
:1000300000000000000000006D0F00088B0F00089A
:10004000AF010008AF010008AF010008AF010008D0
:10005000AF010008AF010008AF010008AF010008C0
:1000600000000000AF010008AF0100080000000020
:10007000AF010008AF010008AF0100080000000058
:10008000AF010008AF01000800000000AF01000848
:1000900000000000AF010008AF010008AF01000838
:1000A00000000000AF010008AF010008AF01000828
:1000B000AF01000800000000AF01000800000000D0
:1000C00000F002F800F03EF80CA030C80838241800
:1000D0002D18A246671EAB4654465D46AC4201D180
:1000E00000F030F87E460F3E0FCCB6460126334274
:1000F00000D0FB1AA246AB46334318470C10000051
:100100002C100000103A02D378C878C1FAD85207F0
:1001100001D330C830C101D504680C6070470000BD
:100120000023002400250026103A01D378C1FBD813
:10013000520700D330C100D50B6070471FB51FBDFB
:1001400010B510BD00F014F91146FFF7F7FF00F0ED
:1001500043F900F02CF903B4FFF7F2FF03BC00F001
:1001600033F9000070B505460C46164602E00FCC88
:100170000FC5103E102EFAD2082E02D303CC03C5B1
:10018000083E042E07D301CC01C5361F03E02178B9
:100190002970641C6D1C761EF9D270BD074880471B
:1001A00007480047FEE7FEE7FEE7FEE7FEE7FEE75B
:1001B00004480549034A054B70470000950F0008A5
:1001C000C10000085001002050050020500100200F
:1001D00001E004C0091F0429FBD28B0701D502806E
:1001E000801CC90700D00270704700290BD0C307DC
:1001F00002D00270401C491E022904D3830702D595
:100200000280801C891EE3E70022EEE70022DFE780
:10021000002203098B422CD3030A8B4211D3002303
:100220009C464EE003460B433CD4002243088B42DD
:1002300031D303098B421CD3030A8B4201D394466A
:100240003FE0C3098B4201D3CB01C01A524183095D
:100250008B4201D38B01C01A524143098B4201D317
:100260004B01C01A524103098B4201D30B01C01A42
:100270005241C3088B4201D3CB00C01A52418308BC
:100280008B4201D38B00C01A524143088B4201D3E9
:100290004B00C01A5241411A00D201465241104649
:1002A00070475DE0CA0F00D04942031000D34042BE
:1002B000534000229C4603098B422DD3030A8B42F4
:1002C00012D3FC22890112BA030A8B420CD3890192
:1002D00092118B4208D3890192118B4204D3890178
:1002E0003AD0921100E08909C3098B4201D3CB01B6
:1002F000C01A524183098B4201D38B01C01A52416B
:1003000043098B4201D34B01C01A524103098B426E
:1003100001D30B01C01A5241C3088B4201D3CB0059
:10032000C01A524183088B4201D38B00C01A52413C
:10033000D9D243088B4201D34B00C01A5241411A13
:1003400000D20146634652415B10104601D3404241
:10035000002B00D54942704763465B1000D34042F2
:1003600001B50020C046C04602BD704770477047C7
:10037000754600F025F8AE46050069465346C008AC
:10038000C000854618B020B5FFF712FF60BC0027FB
:100390004908B6460026C0C5C0C5C0C5C0C5C0C551
:1003A000C0C5C0C5C0C5403D49008D46704710B5A9
:1003B0000446C046C0462046FFF7CDFE10BD0000F3
:1003C00000487047EC00002001491820ABBEFEE752
:1003D000260002007047000010B50122D20600205E
:1003E000074B810054585C50401CC0B23028F8D3F1
:1003F000012004494007886000F0E2FD002010BDA4
:100400000000002000ED00E070B586B0142101A8C6
:10041000FFF7FCFE1248416B012529434163416B04
:1004200029400091416B022421434163406B2040ED
:1004300000900C4801900295002603960494052034
:1004400001A9000700F032F90320019002950396FC
:10045000049401A9044800F029F906B070BD000019
:1004600000100240F898000000040050FEE7000071
:1004700070B586B004460E461149124802258C42DA
:1004800005D1416B29434163416B2940009105210E
:1004900009078C4206D1416B012211434163406B35
:1004A00010400090142101A8FFF7B0FE0196002033
:1004B0000290039501A9204600F0F8F806B070BD3F
:1004C000000400500010024070B586B004460E468D
:1004D000124913488C4206D1426B02210A434263FF
:1004E000426B0A4000920521090701258C4205D183
:1004F000416B29434163406B28400090142101A8BF
:10050000FFF784FE0196029500200390049001A954
:10051000204600F0CBF806B070BD0000000400508B
:100520000010024030B58FB02C2104A8FFF76EFEFA
:100530000024009401940294039401250495280456
:1005400005900C2006900D9404A800F0A7FA00284E
:1005500001D0FFF78BFF07200090019502940394D0
:100560000021684600F08AF9002801D0FFF77EFFDD
:100570000FB030BD10B500F023F9012801D00020E4
:1005800010BD012010BD000010B505242407002275
:100590000749204600F022F900220321054800F017
:1005A0001DF911210022C901204600F017F910BDE4
:1005B0007890000000040050FEB50D462AA2536852
:1005C000116892680193029200910A21FFF720FEC0
:1005D0006846445C0526112136070022C9013046D1
:1005E00000F0FCF8E207D20F2021304600F0F6F8C8
:1005F000A007204FC20F0121384600F0EFF8600736
:10060000C20F0221384600F0E9F82007C20F790135
:10061000304600F0E3F8E006C20F0121090330463E
:1006200000F0DCF8A006C20F4021304600F0D6F8FA
:100630006006C20F0821304600F0D0F800221021D9
:10064000304600F0CBF8012D07D0022D04D1012255
:100650008021304600F0C2F8FEBD0122D1023046B2
:1006600000F0BCF8FEBD00003F065B4F666D7D07E5
:100670007F6F00000004005010B50A21FFF7C8FD8D
:1006800002460846084CA178002906D002211046EF
:10069000FFF792FF0020A07010BD0121FFF78CFF33
:1006A0000120A07010BD0000C4000020F0B50022A1
:1006B0007CE001249440A4462340002B75D04C6874
:1006C000022C01D0122C0CD1D408A40027183D6AAA
:1006D0005407E40E0F26A640B5430E69A6402E43EC
:1006E0003E62066855000324AC40A6430F79BF075D
:1006F000BF0FAF40374307604E68012E05D0022E72
:1007000003D0112E01D0122E0ED18668A643CF68D9
:10071000AF403743876047686646B7430E79F606B1
:10072000F60F96403E434660C668A6438C68AC40D0
:100730003443C4604C68E40037D595081E4CAD00C6
:100740002F193D6E9407E40E0F26A640B5430526EB
:100750003607B04201D1002605E0184EB04201D163
:10076000012600E00226A6402E43134D3E66124E9F
:10077000803634689C434F68FF0300D51C433460C7
:1007800074689C434F68BF0300D51C4374602C6899
:100790009C434E68F60200D51C432C606C689C4359
:1007A0004E68B60200D51C436C60521C0B681C4698
:1007B000D44000D07DE7F0BD001802400004005096
:1007C0000069084201D0012070470020704742694B
:1007D0000A4201D08162704781617047002A01D0CE
:1007E00081617047816270470148806870470000EE
:1007F000E0000020024881684268891881607047E3
:10080000E000002010B50024032000F009F80028C3
:1008100001D0012401E000F02BF8204610BD0000BB
:1008200070B505460024104E7168002919D07D204E
:10083000C000FFF7EDFC01460C480068FFF7E8FC3C
:1008400000F052FB002801D001240BE0042D06D259
:1008500000222946501E00F00CF8356002E0012409
:1008600000E00124204670BDE0000020C000002010
:10087000704710B500F058FB10BD0000F8B50446F5
:100880000D46002C0FD054480068C007C00FA84286
:1008900018D2514F38684008400028433860FFF7AD
:1008A000A3FF064609E00120F8BDFFF79DFF811B6D
:1008B0004A48814201D90320F8BD3868C007C00FFB
:1008C000A842F2D12068464E81070DD5400704D5D5
:1008D000B068072109030843B060B0680F2109021E
:1008E0008843A1680843B0602078C0073BD06068A7
:1008F00001280CD000280FD0022812D038494031EE
:10090000042813D0096A890715D40120F8BD31687D
:10091000890310D40120F8BD316849050BD40120AA
:10092000F8BD3168890106D40120F8BDC96989077D
:1009300001D40120F8BDB168C908C9000143B16004
:10094000FFF752FF074607E0FFF74EFFC11B2348A2
:10095000814201D90320F8BDB068382108406168A0
:10096000C9008842F0D11C480168C907C90FA942D3
:1009700016D901684908490029430160FFF734FF8F
:10098000074607E0FFF730FFC11B1448814201D939
:100990000320F8BD10480068C007C00FA842F1D17D
:1009A0002078400706D5B168072000038143E0683E
:1009B0000143B16000F01CF8B1683C228909114084
:1009C000084A515CC906C90EC84007490860074873
:1009D0000068FFF725FFF8BD0020024088130000E3
:1009E0000010024094100008C0000020E000002029
:1009F00000B585B0142225496846FFF7B3FB244AA9
:100A000090686B468006400F18D090688006400FB3
:100A1000012823D090688006400F022820D09068DB
:100A20008006410F0120C003042905D09168890682
:100A3000490F032900D0002005B000BD1068012136
:100A40008004400F814050680004400F042800D902
:100A5000002080001858FFF7DBFBEDE70D48EBE7BF
:100A6000D068C007C00F002806D0012802D0049823
:100A70004000E1E70848DFE750680004400F042821
:100A800000D90020800018584000D5E7F410000875
:100A90000010024000366E01006CDC02FEB5044618
:100AA000002C0DD020783827C007F74E00285ED0E4
:100AB000B0683840F168C907C90F102802D003E0B8
:100AC0000120FEBD012915D0082813D06068002838
:100AD00007D0A068002815D031690C22914301434A
:100AE000316101216068090488420DD130680843F2
:100AF00030601CE03068800339D56068002836D14A
:100B00000120FEBD0120FEBD052301221B0492042D
:100B1000984206D130681043306030680843306036
:100B200005E030688843306030689043306060682A
:100B300000280ED0FFF758FE054606E0FFF754FEEA
:100B4000401BC82801D90320FEBD30688003F5D5BD
:100B50000DE0FFF749FE054606E0FFF745FE401BA6
:100B6000C82801D90320FEBD30688003F5D4207861
:100B700080077BD5B5683D40F068C007C00F102DD9
:100B800001D1002814D0002D12D0606900285AD05D
:100B900030680721C9028843A16908433060306882
:100BA000FF21013108433060FFF71EFE054640E09B
:100BB0003068400502D56069002809D07068E16995
:100BC000000C000408437060FFF70EFE074608E0C3
:100BD0000120FEBDFFF708FEC01B022801D903203B
:100BE000FEBD30684005F5D5002D13D130680721D2
:100BF000C9028843A16908433060FFF7F9FEB16874
:100C00003C2289091140A14A515CC906C90EC8405D
:100C10009F4908609F480068FFF702FE002825D022
:100C20000120FEBDFFF7E0FD401B022801D9032093
:100C3000FEBD30684005F5D57068E169000C000420
:100C40000843706012E03168FF2001308143316059
:100C5000FFF7CAFD054606E0FFF7C6FD401B022868
:100C600001D90320FEBD30684005F5D420788A4DB7
:100C7000000734D5B0688006400F03280AD0206AE8
:100C800000281AD0296A012001432962FFF7ACFD30
:100C900007460EE0286A800721D5206A00281ED169
:100CA0000120FEBDFFF7A0FDC01B022801D90320D3
:100CB000FEBD286A8007F5D511E0286A400840008B
:100CC0002862FFF791FD074606E0FFF78DFDC01B88
:100CD000022801D90320FEBD286A8007F5D42078B8
:100CE00040076FD500200190B0688006400F0428AF
:100CF00019D0F06BC00009D4F16B0120000701434B
:100D0000F163F16B0140009101200190634801689B
:100D1000C9051BD401460A68801502430A60FFF723
:100D200063FD07460EE0E869800766D5E0680028A5
:100D300063D10120FEBDFFF757FDC01B022801D97A
:100D40000320FEBD55480068C005F4D5E0680028C2
:100D500008D0206981038A0F514917D032698A432C
:100D600002433261E068012817D00421052819D018
:100D7000E86940084000E861E8698843E861E068A4
:100D8000002824D0FFF730FD07461CE03069884377
:100D90000121490440183061E4E7E8690121084372
:100DA000E861ECE7E8690843E861E8690121084384
:100DB000E861E4E7FFF718FDC11B3A48814202D918
:100DC0000320FEBD19E0E8698007F3D50EE0FFF7C8
:100DD0000BFD074607E0FFF707FDC11B31488142C5
:100DE00001D90320EDE7E8698007F4D401980128D0
:100DF00003D1F16B00078143F163606A002870D072
:100E0000B1688906490F02295FD001273F060228F1
:100E10000AD03068B8433060F06840084000F060A5
:100E2000FFF7E2FC04464CE03068B8433060FFF75F
:100E3000DBFC054606E0FFF7D7FC401B022801D982
:100E40000320BEE730688001F5D4A06A002806D1EF
:100E500000F08EF81449884201D20120B1E7F06811
:100E6000A16A400840000843F060306838433060B1
:100E7000FFF7BAFC044619E0FFF7B6FC001B022896
:100E800014D903209DE700000010024094100008D0
:100E9000C0000020E0000020401002400070004030
:100EA00000000300881300000024F4003068800173
:100EB000E2D516E0FFF798FC001B022801D90320B9
:100EC0007FE730688001F5D40BE0012807D0F06897
:100ED000A16AC007C00F884203D0012071E701203A
:100EE0006FE700206DE7000010B50949401E8842F9
:100EF00001D9012010BD074C60610321081F00F0DB
:100F000013F80020A06107202061002010BD000020
:100F1000FFFFFF0000E000E0FEE710B50022FFF752
:100F20005DFC10BD704700008307FF22DB0E9A4076
:100F30008907090E994000280BDA0007000F0838CE
:100F4000830808489B001818C36993430B43C36187
:100F50007047830804489B001818036893430B43A9
:100F60000360704700ED00E000E400E0704700001F
:100F7000034840680004400F024980000858704749
:100F800000100240D4100008704710B5FFF732FC83
:100F900010BD000007484168074842680123120C51
:100FA00012045B031A43114341600449C003886083
:100FB00070470000000FFF1F0010024000ED00E02E
:100FC000FFF720FCFFF7AEFA052707213F070902CC
:100FD0003846FFF779FA06213846FFF749FAFFF756
:100FE00013FAFFF7D1FA0026294DFFF7FDFB04465F
:100FF0002869201A052803D36878FFF73DFB2C6188
:10100000E868201AC82812D902213846FFF7B2FA38
:10101000002806D004213846FFF7ACFA002804D097
:1010200005E001202870EC6001E02E70EC60A888DB
:10103000401CA880FFF7D8FB2978002922D06969D5
:10104000FF22411A2D32914207D36978491C6970F9
:101050006978632900D96E706861A969AA68411A24
:101060009142C2D3A861E878002809D00020E87036
:101070000028BAD0072109023846FFF7A8FBB4E7D9
:101080000120F4E7072109023846FFF746FFACE7E5
:10109000C40000200000000000000000000000006C
:1010A0000000000000000000000000000000000040
:1010B000000000000100000002000000030000002A
:1010C0000400000006000000070000000800000007
:1010D0000900000000093D0000127A000024F4001D
:1010E0004086510100366E0100093D0000093D00B7
:1010F00000093D0000093D0000127A000024F400C0
:101100004086510100366E012811000800000020C1
:10111000EC0000000401000814120008EC0000209C
:10112000640400002001000800000000000000002E
:1011300000000000000000000000000000000000AF
:10114000000000000000000000000000000000009F
:10115000000000000000000000000000000000008F
:10116000000000000000000000000000000000007F
:10117000000000000000000000000000000000006F
:10118000000000000000000000000000000000005F
:10119000000000000000000000000000000000004F
:1011A000000000000000000000000000000000003F
:1011B000000000000000000000000000000000002F
:1011C000000000000000000000000000000000001F
:1011D000000000000000000000000000000000000F
:1011E000000000000000000000127A000100000072
:1011F00000000000FA0000000000000000000000F5
:1012000000000000000000000400000001000000D9
:0412100000000000DA
:04000005080000C12E
:00000001FF
